:020000040800F2
:1000000000000320E1210008F5200008F920000885
:10001000FD20000801210008052100080000000063
:10002000000000000000000000000000092100089E
:100030000D21000800000000112100081521000812
:100040003122000831220008312200083122000844
:10005000312200083122000831220008192100084D
:100060003122000831220008312200083122000824
:100070003122000831220008F50500202D0600205D
:100080003122000831220008312200083122000804
:100090003122000831220008312200082121000805
:1000A00031220008312200083122000831220008E4
:1000B00039060020450600202921000831220008C9
:1000C00031220008312200083122000831220008C4
:1000D00031220008312200083122000831220008B4
:1000E00031220008312200083122000831220008A4
:1000F0003122000831220008312200083122000894
:100100003122000831220008312200083122000883
:100110003122000831220008312200083122000873
:10012000D9010020FD010020C9010020D5010020D7
:10013000B1010020312200083122000831220008DC
:100140003122000831220008312200083122000843
:10015000BD010020312200083122000831220008B0
:100160003122000831220008312200083122000823
:10017000312200083122000831220008000000006E
:100180003122000831220008312200083122000803
:1001900031220008312200083122000831220008F3
:0C01A000000000000000000031220008F8
:1001B00010B5054C237833B9044B13B10448AFF3A1
:1001C00000800123237010BDE8060020000000001D
:1001D0009C36000808B5034B1BB103490348AFF335
:1001E000008008BD00000000EC0600209C360008DE
:1001F00053B94AB9002908BF00281CBF4FF0FF318E
:100200004FF0FF3000F072B9ADF1080C6DE904CE8B
:1002100000F006F8DDF804E0DDE9022304B07047E1
:100220002DE9F047089E04468846002B4BD18A42B0
:10023000154667D9B2FA82F24AB1C2F1200701FA33
:1002400002F320FA07F7954047EA030894404FEA83
:10025000154E230CB8FBFEF71FFA85FC0EFB178822
:1002600043EA084307FB0CF1994209D9EB1807F15F
:10027000FF3080F01B81994240F21881023F2B44ED
:100280005B1AA4B2B3FBFEF00EFB103344EA034446
:1002900000FB0CFCA44509D92C1900F1FF3380F0B8
:1002A0000781A44540F2048102382C4440EA07400B
:1002B000A4EB0C0400271EB1D4400023C6E9004380
:1002C0003946BDE8F0878B4209D9002E00F0EB805B
:1002D0000027C6E9000138463946BDE8F087B3FA81
:1002E00083F7002F47D18B4202D3824200F2FA807B
:1002F000841A61EB030301209846002EE0D0C6E982
:100300000048DDE702B9FFDEB2FA82F2002A40F0CF
:100310008F80491B4FEA154E1FFA85F80127B1FB64
:10032000FEFC230C0EFB1C1143EA014308FB0CF1FD
:10033000994207D9EB180CF1FF3002D2994200F232
:10034000CD808446591AA3B2B1FBFEF00EFB101407
:1003500043EA044408FB00F8A04507D92C1900F132
:10036000FF3302D2A04500F2B6801846A4EB080481
:1003700040EA0C409FE7C7F1200CBB4022FA0CFE7C
:100380004EEA030E01FA07F420FA0CF521FA0CF3F9
:100390004FEA1E482543B3FBF8F92C0C08FB193330
:1003A0001FFA8EFA44EA034309FB0AF49C4202FA5C
:1003B00007F200FA07F10BD91EEB030309F1FF3036
:1003C00080F087809C4240F28480A9F10209734446
:1003D0001B1BADB2B3FBF8F008FB103345EA034436
:1003E00000FB0AFAA24508D91EEB040400F1FF3312
:1003F0006BD2A24569D90238744440EA0940A0FB97
:100400000289A4EB0A044C45C2464B4654D351D052
:10041000002E69D0B1EB0A0564EB030404FA0CFC6E
:10042000FD40FC404CEA0505C6E90054002747E7BB
:10043000C2F1200320FA03F7954001FA02F021FAF5
:1004400003F34FEA154E3843010CB3FBFEF71FFAD6
:1004500085F80EFB173341EA034107FB08F38B4293
:1004600004FA02F407D9691807F1FF3C2FD28B4236
:100470002DD9023F2944CB1A81B2B3FBFEF00EFB0B
:10048000103341EA034100FB08F38B4207D9691896
:1004900000F1FF3C17D28B4215D902382944C91A02
:1004A00040EA07473BE73746304609E70746E7E6B5
:1004B0001846FBE64145ABD2B8EB020A69EB0E02E7
:1004C00001381346A4E76046E9E7184695E7674612
:1004D000D1E781467CE702382C4447E7ACF1020CB7
:1004E0002B442FE7384608E73746E9E6704700BF58
:1004F0002DE9F04F2DED028B87B00446149DBDF819
:100500005400256098469DF84830A080049306204A
:100510009DF84C3005930E46174602F043FFA0604D
:10052000062002F03FFF034601254FF0000BE0607C
:100530002574C3F800B0A3F804B01C2002F036FF05
:100540009FED338AE3680460057480F811B0E061C0
:10055000057280ED018A93F90020A0684FF006092A
:10056000294684F8189062F01F0A02F01DFF207ED1
:1005700002F018FF2946A060E06802F015FF207E17
:1005800002F010FF0146E06081F800A01C2002F09C
:100590000DFFE26880F811B002210460206280ED56
:1005A000018A0572017492F90020A06812F0E00F30
:1005B00006BF0323237684F81890012102F0F4FE8D
:1005C000207E02F0EFFE0121A060E06802F0ECFE68
:1005D000207E02F0E7FE0346FC22E0601A701C2039
:1005E00002F0E4FE059B01934FF0020C049B009384
:1005F0003A4643463146CDF808C0054601F0B4F905
:100600002046656107B0BDEC028BBDE8F08F00BFEE
:10061000AED7A3390123417480ED050A8374704776
:10062000022810B5044612D0402800D010BD00F0BA
:10063000C5FC00F0CBFC00F0D9FC0A4802F01EFD1E
:1006400009490A4B0020012208701A7010BD0146AA
:10065000074802F06FF921460548BDE8104002F056
:1006600069B900BFEC0A0020080700201807002025
:10067000000402402DE9F04FBC49BD4A2DED068B28
:100680009142A9B00CD2CB43134423F00303B94ADF
:100690000433134452F8040B41F8040B9A42F9D185
:1006A000C82001F017FE242002F080FEB24AB34FAA
:1006B000B34EDFF8F89203231025CDE90132009301
:1006C0000222012103950446FFF712FF5C203C60E3
:1006D00002F06CFEAB4B02934FF4006203924FF4B6
:1006E0008072CDE90032062101230522044600F084
:1006F000ABFB5C20346002F059FEA349A34B00938E
:1007000004244FF040082246CDE90181022305214F
:100710000394064600F098FB2846C9F8006002F0F2
:1007200045FE01259A4ACDF80C80234621460194C6
:10073000029200950022064601F068FA954B964C0D
:100740001E60314617A801F03FFAC82117A801F032
:100750004DFA302002F02AFE8046894E88F82C504F
:100760004FF07E5100230022C8F80C108B49C8F8C6
:100770001C10C8F80030C8F80430C8F82430C8F895
:100780001830C8F81430C8F820303068C8F8104065
:10079000FAEE040AB2EE040A1146C8F8082000F086
:1007A000A5FB33681A7F002AFCD00021FAEE040A68
:1007B000B2EE040AD9F8000000F098FBD9F8003036
:1007C0001A7F002AFCD000F0F1FB00F007FC4FF08C
:1007D000000BDFF8DCA1DFED729A9FED729A9FEDBE
:1007E00072AA5E46386802F07FFF3A68137C002BDD
:1007F000FCD0002E40F08881D06902F061FF3B6898
:10080000186AB0EE408A02F05BFF17A8F0EE400ACB
:10081000B0EE480A02F060FFD9F80000037F002B19
:10082000FCD09AF80030002BDCD05A4B1C68E168F1
:100830000B78113B082B0BD8DFE813F060015B014C
:100840002501D000BC000E0009004F014B0100261D
:1008500000238AF80030C5E7CB798C68C8684E78E9
:100860008DF84460CA1C003318BF012315680A695B
:1008700089788DF8451013958DF8463014941590AD
:1008800016929DF84500434CC00002F08BFD0546D2
:1008900008909DF84500C00002F084FD9DF84530A9
:1008A0000A90024629462068DB0002F021FF2268F8
:1008B000937A03F0FF06002BFAD0202002F076FD99
:1008C000044606904FF4007002F070FD9DF845203C
:1008D000034603F5007104F10C00E36005900791F5
:1008E000002A00F08D82089C0E9302460825CDE96F
:1008F0000C680595A34618460C46002590461E46F2
:1009000011460EE01EB1C6ED008A86ED018A08365A
:1009100001359DF84520ADB2AA420BF1080B40F21B
:100920000B81A4F108029642DBED008A9BED018A5F
:10093000E8D1069BA8EB0302059BA3EBA202012AC8
:1009400040F2EE814FF40070099102F02FFD0999F9
:10095000C8F804001EB1C6ED008A86ED018A08F1D0
:10096000040800F500740646D2E700BF000000202E
:10097000780600200037000800000240040700202D
:100980000C07002000180240001002400014024032
:10099000000C02401C0700200AD7233C0000A040A6
:1009A000000000000AD7233C6666663F100700205F
:1009B000200700208B1C4A781B688DF84320129377
:1009C0009DF843309DED120A012B08BF584BF0EE05
:1009D000490A08BF186800F011FF39E74C788B8985
:1009E0008D780593231C18BF012391F803B006935B
:1009F0002B1C18BF0123BBF1010F91ED018A079356
:100A000008BF4B4BD1ED028A08BF1868F0EE490AC7
:100A1000B0EE480A00F0F2FE002C40F0C7813868C2
:100A2000002D40F0BB81BBF1010F08BF404B059A80
:100A30000CBF1B68D9F800300092F0EE680AB0EEE7
:100A4000480ADDE9061200F06FFE8346002C40F0F4
:100A50008E8135B13B682146186AB0EE4A0AFFF72D
:100A6000D9FD344B1868059BC1689B005A4602F0BB
:100A70003FFE304B1A68937A002BFCD05846042175
:100A800002F092FCE4E600F0C1FA2A4B38681B68D9
:100A9000284DDB689A785978012A0ABF244BD9F887
:100AA00000201A684FF47A7300F0E8FD04462868C5
:100AB0002246C1684FF47A6302F01AFE2A68937ADC
:100AC000002BFCD02046042102F06EFC00F096FAC8
:100AD000BEE64B788DF84730BAE6826C4FF47A5315
:100AE000204602F005FE134B1A68937A002BFCD0C7
:100AF000AEE60131404601F07FF8A9E6B1F80110F9
:100B000017A801F073F8A3E6106A98ED0A8AD9F8DD
:100B1000004002F0D5FD4046F0EE400AB0EE480A33
:100B200002F0CAFD204602F0DBFD3A6864E600BF31
:100B30000C0700201C0700204246B346541ACDF88B
:100B40002480A410ABEB0002DDE90D83013CD21040
:100B50000C9E05910B9002EB841408980C930421D1
:100B600002F022FC0A98012102F01EFC0B9BD9F82E
:100B7000000000225B454FF00105A0F8462080F8F8
:100B80004450C8F8082008BF099A9DF8461008BFCD
:100B900052F8042CDDF850E0DDF854C00C9BC8ED91
:100BA000009A0CBF02F500725A46C8ED019A52F83D
:100BB000042CC8F82820C8ED099A88F82C10C8F829
:100BC00020E0C8F81CC09DED160A0893F0EE490A13
:100BD00000F014FEDDE90723D21A04EBE2029409C7
:100BE0000C920022E01C1E92CDE92022CDE92222A7
:100BF000CDE92422CDE92622D9F800200892082840
:100C00003A680A9204F1010400F2878008221F92D8
:100C100020200F9302F0CAFB1F9A0D90121B52085E
:100C200000EB820505EB8404A5421E900E920B9505
:100C30000F9B09D24FF4007002F0B8FB45F8040B8B
:100C4000AC42F7D80F9B0B9D54F804CCDDE90D2185
:100C500052F821200C99219201F03F010CF5007E01
:100C60000CEBC101043C02F50070CDE926E4CDE9AE
:100C7000241C059CDDF81CC02092CDE92205AE465F
:100C800005465B4510D01AB193E8030082E80300E3
:100C900008339C4534D008329542F2D15EF8042FD7
:100CA00002F500755B45EED108989DED130A0A998F
:100CB0001EAA00F0EBFD1E9868B1279C239D04340A
:100CC000A54206D255F8040B02F08AFBAC42F9D8D3
:100CD0001E9802F085FBD9F80030099C1B6CC8F8FF
:100CE0002430059B0434A34206D21D4655F8040B5C
:100CF00002F076FBAC42F9D8069802F071FBA7E54A
:100D000063680832954204F1040403F5007CB8D10D
:100D10005EF8042F02F50075C4E71F90800078E7A5
:100D2000A8EB01029210531C0793059B0232B3EB10
:100D3000420F43D99C1A069B640803EB840408F114
:100D40000408A142A8EB010265D988455ED020467F
:100D500002F08CFB2146079B0A6803F1804808F1EA
:100D6000FF3802F5007301EB88080793EAE53B685A
:100D7000B0EE4A0AD8690021FFF74CFC002D3FF481
:100D800070AE3B680021186AB0EE4A0AFFF742FCD9
:100D9000274B1868059BC168DB0067E6006AB0EE68
:100DA0004A0A0121FFF736FC38683CE63B68B0EEA2
:100DB0004A0AD8690121FFF72DFC30E643B35B00F6
:100DC0000233B3F1804F05932FD298000B91099213
:100DD00002F0ECFA059B099A0B999A1A04465008FE
:100DE00008F104028A4204EB800803D0521A4046FC
:100DF00002F03CFB069802F0F3FA06944146AAE79B
:100E000009900B939B466FF03F04A6E62146A2E7AC
:100E100003230593D9E78845F8D0079BC2EB8300ED
:100E2000204402F023FB214695E702F0DBFA00BFE5
:100E30001C07002008B50A2002F0B8FA014B186020
:100E400008BD00BF140700202DE9F04F044685B00F
:100E50004FF0000A4FF47A70A4F8580084F844A0C8
:100E60004FF47A5090468B461E46BDF83C70BDF854
:100E7000449002F097FA0E9B2360109BA360A0643D
:100E8000A780A4F80C90032002F08CFA0125002121
:100E9000DFF854C0E06484F85AA0C4F810C0257785
:100EA0006165216521641C2002F080FA4FF0020C7C
:100EB0000A231A46CDF808C0824659460196CDF855
:100EC000008000F051FD49461098C4F828A02A4639
:100ED00001F036FD0E982A46394601F031FD2046D4
:100EE00005B0BDE8F08F00BF000020479FED2D7AD0
:100EF000DFED2D7A037F417770EE606AF6EE005ADF
:100F000087EE266A30EE207A66EEA77A27EE257AFB
:100F100080ED0E0AC0ED0F0A80ED067AC0ED057A6D
:100F200080ED046A03B9704782880168F2EE047AA2
:100F3000F4EEE76A12040023F1EE10FA10B403771E
:100F40008A610FD50224C26C20211170C26C5370CB
:100F5000C36C9C70C26C5DF8044B806A0323002153
:100F600002F0CABBF2EE087AF4EEE76AF1EE10FA8C
:100F700009D4F3EE007AF4EEE76AF1EE10FA05D543
:100F800082240223DFE742240223DCE7F3EE037A24
:100F9000F4EEE76AF1EE10FA4BBFC22402240223FA
:100FA0000323D0E7F0FF7F4908008035024B4FF460
:100FB00080729A61704700BF000C0240024B4FF0F4
:100FC00080729A61704700BF000C0240024B4FF0E4
:100FD00000729A61704700BF000C0240024B4FF450
:100FE00080629A61704700BF000C0240024B4FF0D4
:100FF00080629A61704700BF000C0240024B4FF4C0
:1010000080729A61704700BF00000240024B4FF4AB
:1010100000729A61704700BF0000024030B50023A3
:1010200095B0CDE90A33CDE90C33CDE90433CDE9F0
:1010300006332B4901930393086C2A4A40F08050F1
:101040000864096C01F080510191019902931368C1
:1010500043F440431360136803F4404302934FF496
:10106000803202234FF4800001240F21CDE9084291
:101070000E93D82212930F90042308A8029D139375
:10108000CDE9101201F0AAFC10BB01F069FCC0B957
:101090000F21022500244FF4A0524FF480530391F6
:1010A00003A80521CDE90454CDE9062301F086FE0D
:1010B00028B101224FF480710B4801F041FC15B0BA
:1010C00030BD01224FF48071074801F039FCDFE7A1
:1010D00022464FF48071044801F032FCD5E700BF8E
:1010E0000038024000700040000C024080B500242F
:1010F00092B001F0C3F8FFF791FFCDE90D44CDE9BF
:101100000F44BF4D039411942B6BBE4843F0100362
:101110002B632B6B03F010030393039B04942B6B43
:1011200043F004032B632B6B03F004030493049B31
:1011300005942B6B43F020032B632B6B03F02003F0
:101140000593059B06942B6B43F080032B632B6B5D
:1011500003F080030693069B07942B6B43F0010377
:101160002B632B6B03F001030793079B08942B6BF6
:1011700043F002032B632B6B03F002030893089BDD
:1011800009942B6B43F008032B632B6B03F00803CC
:101190000993099B0A942B6B43F040032B632B6B41
:1011A00003F040030A93224604210A9B01F0C8FB86
:1011B00022464021944801F0C3FB22464FF444717B
:1011C000924801F0BDFB22460121914801F0B8FB95
:1011D000224640F602718F4801F0B2FB22464FF4DE
:1011E00010618D4801F0ACFB012604230DA9854850
:1011F000CDE90D364027CDE90F4401F05DFA0DA988
:1012000081480D97CDE90E64109401F055FA4FF422
:1012100044730DA97D480D93CDE90E64109401F03F
:101220004BFA0DA97A48CDE90D66CDE90F4401F0DE
:1012300043FA7A4A76480E9202230DA90D930F9332
:1012400001F03AFA40F602730DA972480D93CDE908
:101250000E64109401F030FA4FF410630DA96E483B
:101260000D93CDE90E64109401F026FA0DA969489A
:10127000CDE90D76CDE90F4401F01EFA2246214654
:10128000072001F04BF8072001F07EF822462146A6
:10129000172001F043F8172001F076F801942B6B2A
:1012A0005F4F43F480032B632B6B03F480030193A4
:1012B000019B02942B6B43F400132B632B6B03F401
:1012C00000132246214602930E20029B01F026F8CD
:1012D0000E2001F059F8224621460F2001F01EF899
:1012E0000F2001F051F822462146382001F016F86F
:1012F000382001F049F822462146392001F00EF845
:10130000392001F041F8224621463A2001F006F842
:101310003A2001F039F8224621463B2000F0FEFF3A
:101320003B2001F031F8224621463C2000F0F6FF38
:101330003C2001F029F822462146442000F0EEFF2F
:10134000442001F021F8374B4FF482754FF40071BF
:101350000A2218469C60C3E903445C61C3E9074460
:10136000C3E90944C3E900759961DA6201F0C0FD7F
:10137000002840F061812C4B2C4A1A604FF4827295
:101380004FF400740A215A60184600229C61D96209
:10139000C3E90222C3E90422C3E90722C3E90922FF
:1013A00001F0A6FD002840F04081214B214A1A603F
:1013B0004FF4007400220A2118469C61D962C3E9E7
:1013C0000122C3E903225A61C3E908229A6201F0AB
:1013D0008FFD002840F02281174B184A1A604FF405
:1013E00082714FF400740A2259609C61002101242B
:1013F0001846DA62C3E902111961C3E907111FE057
:101400000038024000100240001402400000024078
:1014100000040240000C024000180240000031109D
:1014200000300140940A00203407002000380040BA
:10143000DC090020003401408C07002000500140EE
:10144000C3E909115C6101F053FD002840F0DF8021
:101450007D4B7E4A1A604FF482714FF400740A2269
:1014600059609C61002101241846DA62C3E9021127
:101470001961C3E90711C3E909115C6101F038FD85
:10148000002840F0BD80724A4FF080434FF46171F4
:10149000136010460023D1605360CDE90D33CDE9D0
:1014A0000F330B939360136193610C9301F062FD12
:1014B000002840F09E804FF480530DA964480D939E
:1014C00001F0F2FD002840F08D8000230BA9604858
:1014D000CDE90B3301F040FF00287CD15D4A5E4B23
:1014E0001360192100231046D1605360CDE90D33FC
:1014F000CDE90F33CDE90B3393601361936101F0B4
:1015000039FD002860D14FF480530DA951480D9347
:1015100001F0CAFD002850D100230BA94D48CDE9A8
:101520000B3301F019FF002840D14C4A4C4B13609B
:101530005A2100231046D1605360CDE90D33CDE927
:101540000F33CDE90B3393601361936101F012FD0A
:1015500028BB4FF480530DA940480D9301F0A4FD22
:10156000B0B900230BA93D48CDE90B3301F0F4FEDF
:1015700038B93C4A136843F440731360FFF77AF8B4
:10158000FEE701224FF48071374801F0D9F9F0E706
:1015900001224FF48071344801F0D2F9E1E70122D1
:1015A0004FF48071304801F0CBF9D2E701224FF4BB
:1015B00080712D4801F0C4F9B7E701224FF4807122
:1015C000294801F0BDF9A7E701224FF480712648B0
:1015D00001F0B6F997E701224FF48071224801F03B
:1015E000AFF97BE701224FF480711F4801F0A8F9A1
:1015F0006BE701224FF480711B4801F0A1F95AE713
:1016000022464FF48071184801F09AF93BE72246D0
:101610004FF48071144801F093F919E701224FF457
:101620008071114801F08CF9D6E601224FF48071E7
:101630000D4801F085F9B8E632464FF480710A484A
:1016400001F07EF997E600BFE40800200054014055
:10165000EC0A00203C09002000040040E4070020C0
:1016600000080040003C0240000C024001224FF400
:101670008071014801F064B9000C02402DE9F04F7F
:10168000074685B098001E468946264BB3FBF6F800
:10169000924601F087FE0190002E3FD0013EB6B287
:1016A00000EB8606043605464FF4002441F2883BE1
:1016B0002146504602F00CF89AF81C30002BFBD063
:1016C000CDF80CB0039B2BB1039B013B0393039B11
:1016D000002BF9D1384602F007F89AF81C30002B9D
:1016E000FBD0B9F1010F0CBFF869386A01F0E8FFCF
:1016F0004CF2503385ED000A03934444039BB4F548
:10170000801F88BFA4F580142BB1039B013B03937A
:10171000039B002BF9D10435AE42C9D1019805B025
:10172000BDE8F08FFFFF0F002DE9F04F2DED028B8C
:1017300085B070EEC00A109E741E07EE904AF8EE57
:10174000677AB0EE408A054692469B46C0EEA78A6D
:101750000F4609B1002A4CD13346274A934294BF21
:1017600098004FF0FF3001F01DFE80464EB300247C
:1017700041F28839B0EE480A584601F0B1FF9BF8B3
:101780001C30002BFBD0CDF80C90039B2BB1039A9F
:10179000013A0392039B002BF9D1284601F0A4FFE4
:1017A0009BF81C30002BFBD08FB9286A01F088FF12
:1017B00008EB840383ED000A0134A64238EE288A40
:1017C000D8D1404605B0BDEC028BBDE8F08FE8698A
:1017D000BAF1000FEAD001F073FF08EBC40383ED08
:1017E000000A286A019301F06BFF019B83ED010A57
:1017F000E2E77300B1E700BFFEFFFF1FF0B52DED7C
:10180000028B83B0036C0093DDED007A9DED007ACE
:10181000F4EEC07AF1EE10FA4CBF30EE477A37EEB4
:10182000407AF7EE006AC7EE207A9DED007A77EEF7
:10183000A67A30EE470AFCEEE77A17EE906AF8EEE9
:10184000677A80EE278AE6B10446012564272046A0
:1018500007EE905A9DED000AF8EE677AA7EE880A27
:1018600001F03EFF237F002BFCD00197019B2BB1A1
:10187000019B013B0193019B002BF9D10135AE4245
:10188000E5D203B0BDEC028BF0BD00BF70B52DED0D
:10189000028B154684B0026CAB6800920446B0EE31
:1018A000408A0E46AA699A4244D0DDED007A94ED52
:1018B0000F7A77EE887ACDED007ADDED007AF4EEDE
:1018C000C77AF1EE10FA35D49DED007AD4ED0E7A98
:1018D000B4EEE77AF1EE10FA2CDC9DED000A20461A
:1018E00001F0FEFE237F002BFCD0304601F0FCFE11
:1018F000237F002BFCD0AB68306A1A685B680192CA
:10190000029301F0DDFE8DED030A9DED017A9DED60
:10191000036ADDED017ADDED026A27EE067A67EEF5
:10192000A67AB4EEE77AF1EE10FA07DCAB68AA69A2
:101930009A42BAD104B0BDEC028B70BD2A69AB6883
:10194000083A934202D00833AB60ABE7E86801F095
:1019500047FD6A695368EB60043203F50071AB60C0
:10196000C5E904129EE700BFF0B401399DF81040AC
:101970009DF81470069E052906D8DFE801F01805C9
:101980000515120382498161072A00F2FE80DFE813
:1019900012F0C300CA00D200DA00E200E900F10050
:1019A00011007C498161EFE77B498161ECE77B496C
:1019B0008161E9E77A4A7B4982604FF00062016009
:1019C0000261072C00F2DE80DFE804F09F978F872A
:1019D00080787004724A734CC2604FF000614460BA
:1019E00041618168846951B30D6825F001050D607E
:1019F0000D6825F060650D600D6845EA436504F1EA
:101A00000C030D608B600B6823F440330B600B6894
:101A100043EA06430B600B6843F480630B600B687A
:101A200023F400730B600B6823F0C0030B600B689A
:101A300023F480230B600B6843F010030B60002A33
:101A40002ED0136823F001031360136823F0606342
:101A50001360156804F10C0145EA47651560916053
:101A6000116821F440311160136843EA06431360A2
:101A7000136843F480631360136823F400731360E6
:101A8000136823F080031360136843F0400313606E
:101A9000136823F480231360136843F0100313606A
:101AA000236843F040032360F0BC70473E4A3D4C3E
:101AB000C2604FF400114460416192E73B4A394CE7
:101AC000C2604FF40061446041618AE7384A354C96
:101AD000C26020214460416183E7364A364CC260CF
:101AE0004FF00061446041617BE7344A324CC26090
:101AF0004FF400114460416173E7314A2E4CC260DB
:101B00004FF40061446041616BE72E4A2A4CC26089
:101B100020214460416164E72A4A274982602022EB
:101B2000016002614DE7264A234982604FF400625A
:101B30000160026145E7214A1F4982604FF40012AB
:101B4000016002613DE71B4A1B4982604FF0006261
:101B50000160026135E7164A124982602022016065
:101B600002612EE7114A0F4982604FF40062016062
:101B7000026126E70C4A0B4982604FF400120160B3
:101B800002611EE70022C2602BE70022826018E794
:101B90000054014000500140003401400030014039
:101BA000B86402400C640240A064024088640240B1
:101BB000706402405864024008640240406402407D
:101BC000286402401064024038B500250446816054
:101BD0004561856141F6547001F0E4FBC823206043
:101BE000C4E90355A380204638BD00BF002381808F
:101BF000C0E90333704700BF0B6803614B68436162
:101C00008B68836100224260704700BF2DE9F04F6E
:101C100085B00446109DBDF84400656020811C20FD
:101C20000F46904699469DF838A09DF83CB001F0CB
:101C3000BDFB012506464B4642463946CDE900AB81
:101C40000295FFF791FE2660A57240F6B47001F090
:101C5000A9FBE060204605B0BDE8F08F82B00C4BD8
:101C6000002100915A6C42F480425A645A6C02F48A
:101C700080420092009A01911A6C42F080521A64DC
:101C80001B6C03F080530193019B02B0704700BFAF
:101C9000003802402DE9F04103688E4A90B00024DC
:101CA00093420546CDE90B44CDE90D440F945FD036
:101CB000894A934200F03481884A934200F0B08010
:101CC000874A934206D0874A934200F06C8110B055
:101CD000BDE8F081844B07945A6C8448844E42F4EA
:101CE00080125A645A6C02F480120792079A089480
:101CF0001A6B42F020021A631B6B03F020030227C9
:101D000008934FF005084FF420730BA9089A0B9322
:101D10000C97CDE90E7800F0CFFC4FF480720323CE
:101D20000BA972480C970B920E93CDF83C800D9442
:101D300000F0C2FCDFF8E4C1F4604FF08067C6E950
:101D40000544C6E900C740214FF480624FF4403398
:101D5000F46174623046B1603261336200F03CFB82
:101D600008B1FFF783FCAE64B56310B0BDE8F08145
:101D70005D4B01945A6C5F4E5F4842F480525A6446
:101D80005A6C02F480520192019A02941A6B42F04A
:101D900001021A631B6B03F001030293E0230B9310
:101DA00002230BA90C934FF0030C0523029ACDE9F3
:101DB0000EC300F081FC514830604FF0C0614FF419
:101DC00080624FF400333046B460F460C6E90544E5
:101DD000F461746271603261336200F0FDFA0028D0
:101DE00040F01581464C474820604FF0C0634021C9
:101DF0004FF480626360EE64B56320460023A16007
:101E00002261E360C4E90533C4E90733636200F08B
:101E1000E3FA00285AD1AC64A56310B0BDE8F081A4
:101E2000314B05945A6C384E384842F400525A648B
:101E30005A6C02F400520592059A06941A6B42F00D
:101E400010021A631B6B03F0100306934FF4E04378
:101E50000B9302230BA90C934FF0030E0523069A54
:101E6000CDE90EE300F028FC294830604FF0006116
:101E70004FF480624FF480333046B460F460C6E9BA
:101E80000544F461746271603261336200F0A4FA57
:101E9000002840F0C2801F4C1F4AEE6440234FF0E0
:101EA0000060A3600023B5634FF48061226060602E
:101EB0004FF480322046636221612262E360C4E90C
:101EC0000533E36100F088FA0028A4D0FFF7CEFBC9
:101ED000A1E700BF0030014000380040003401405D
:101EE00000500140005401400038024000140240FC
:101EF000340A00202C0B0020000002404064024005
:101F0000EC0B0020586402408408002000100240BE
:101F1000106402407C090020286402407064024082
:101F20003F4B03941A6C3F4E3F4842F480421A6480
:101F30001A6C02F480420392039A04941A6B42F0E2
:101F400002021A631B6B03F0020304934FF4604315
:101F50000B930223049A0C93032205230BA9CDE9CA
:101F60000E2300F0A9FB314A74604FF480633046C1
:101F7000C6E90244C6E90544C6E907447462326012
:101F8000336100F029FA002844D1294C294B236001
:101F900040214FF480620023EE64B5632046A160C7
:101FA000226163602DE71E4B09945A6C224E234830
:101FB00042F400125A645A6C02F400120992099A0F
:101FC0000A941A6B42F040021A631B6B03F0400341
:101FD0000A934FF4E0430B9302230BA90C930327BE
:101FE00005230A9ACDE90E7300F066FB144B3360AB
:101FF0004FF000707060F4604021C6E90544F46160
:1020000074624FF480624FF440333046A3E6FFF72A
:102010002DFBE7E6FFF72AFBB7E7FFF727FB3AE7D9
:1020200000380240240800200004024058600240AA
:102030008C0B0020706002404C0C00200018024005
:102040008864024000B50368B3F1804F85B008D0C2
:10205000254A934232D0254A934219D005B05DF803
:1020600004FB002203F50E330192196C41F00101CB
:1020700019641B6C03F00103019311461C20019BA2
:1020800000F04CF91C2005B05DF804EB00F07CB9C1
:102090000022174B0392196C41F0040119641B6C68
:1020A00003F00403039311461E20039B00F036F94E
:1020B0001E2005B05DF804EB00F066B900220C4B61
:1020C0000292196C41F0020119641B6C03F00203C7
:1020D000029311461D20029B00F020F91D2005B03F
:1020E0005DF804EB00F050B9000400400008004027
:1020F00000380240704700BFFEE700BFFEE700BFA8
:10210000FEE700BFFEE700BF704700BF704700BF9B
:10211000704700BF00F0CCB8022000F015BC00BF33
:10212000402000F011BC00BF014801F06BB800BFB7
:10213000E40700200120704708B501F05DF916237F
:1021400003604FF0FF3008BD08B501F055F91623C4
:102150000360FEE70C4A08B5136833B118446946BA
:10216000884208D81060184608BD084B1360184410
:1021700069468842F6D901F03FF90C2303604FF01D
:10218000FF33184608BD00BF24070020B80C00200C
:102190001049114BD1F8882042F4700210B4C1F8F4
:1021A00088201A680D4C002042F001021A609860E5
:1021B0001A6822F0847222F480321A605C601A6815
:1021C0004FF0006422F480221A60D8608C605DF8C1
:1021D000044B704700ED00E000380240103000244E
:1021E000DFF834D0002103E00C4B5B58435004313E
:1021F0000B480C4B42189A42F6D30B4A02E00023DC
:1022000042F8043B094B9A42F9D3FFF7C1FF01F0B2
:10221000F9F8FEF76BFF704700000320A43D0008AB
:1022200078060020E8060020E8060020B40C002014
:10223000FEE7000038B50E4A0E4B12781B680546C3
:102240004FF47A70B0FBF2F0B3FBF0F000F0AAF8B4
:1022500008B90F2D01D9012038BD04460246294690
:102260004FF0FF3000F05AF8034B20461D6038BD98
:102270007C060020780600208006002008B50B4B65
:102280001A6842F400721A601A6842F480621A6096
:102290001A6842F480721A60032000F02DF80020C2
:1022A000FFF7C8FFFFF7DAFC002008BD003C024042
:1022B000034A044B11681B780B441360704700BF3E
:1022C000AC0C00207C060020014B1868704700BF52
:1022D000AC0C002038B50446FFF7F6FF631C05463A
:1022E00002D0044B1B781C44FFF7EEFF401BA042BA
:1022F000FAD338BD7C060020074AD3684FF6FF01A9
:102300000B40000243F0BF6300F4E06043F400338D
:102310000343D360704700BF00ED00E0184BDB685B
:10232000C3F3022330B4C3F10705042D03F1040401
:1023300028BF0425062C19D9033B4FF0FF349C40DD
:1023400022EA04044FF0FF32AA4021EA020101FA16
:1023500003F2224312010028D2B20ADB00F16040EE
:1023600000F5614080F8002330BC7047002423460C
:10237000E8E7044B00F00F0003441A7630BC7047C6
:1023800000ED00E0FCEC00E0002807DB00F01F019E
:1023900001234009024A8B4042F82030704700BFB9
:1023A00000E100E00138B0F1807F0ED2084B10B49C
:1023B000084C5860F02084F82300002207211046C2
:1023C0009A6019605DF8044B70470120704700BFA8
:1023D00010E000E000ED00E0F8B50446FFF774FF00
:1023E000002C54D00222236884F835201A6800217A
:1023F00022F0010284F8341005461A6005E0FFF768
:1024000063FF401B05283BD823681A68D107F6D420
:10241000D4E90126D4E90351324360691F682A4395
:10242000D4E906650A430243216A354832432A4308
:102430000A43616A3840042942EA000229D01A603E
:102440005A6922F007021143DAB22E485961103A54
:10245000A0FB021212092C4923F47F73895CE16509
:1024600023F00303032A88BF04333F228A40012557
:102470000021A36508469A60616584F83550F8BD6F
:10248000032320226265184684F83530F8BD012008
:10249000F8BDD4E90B0101430A43A56A1A605A69E1
:1024A00045F0040122F0070211430028CCD07EB190
:1024B000B6F5005F16D0022D03D9032DC4D1C20199
:1024C000C2D5012340226265184684F83530F8BD34
:1024D000012D03D0F3D3022DB6D1F0E7B0F1C07FC8
:1024E000B2D1EEE7032DAFD801A252F825F000BF1C
:1024F000C3240008BF240008C3240008DD2400080A
:102500003F8010F0ABAAAAAA883D0008F0B583B0BE
:102510000023876D0193C36D3D68654908229A4089
:102520002A4204460E6803D001680868400759D45F
:1025300001229A402A4203D021684969080674D4CE
:1025400004229A402A4203D021680968890766D488
:1025500010229A402A4203D02168086800074BD411
:1025600020229A402A4214D021680868C00610D55B
:10257000BA6094F83520052A63D00B6813F4802FD5
:102580000B687ED0190340F18980E36B0BB12046C4
:102590009847636D23B3636DDA071AD50523226864
:1025A00084F835301368434923F00103A1FB061674
:1025B0001360B60A02E01368DB0704D5019B013300
:1025C000B3420193F7D90022012384F8342084F820
:1025D0003530E36C23B1204603B0BDE8F040184726
:1025E00003B0F0BD086820F004000860BA60626DB6
:1025F00042F0010262659BE7BA600A6812F4802F1C
:102600000A6818D1D20503D40A6822F008020A60C9
:10261000226C002AA4D020469047E36DA0E7BA6060
:10262000626D42F00402626592E7BA60626D42F048
:102630000202626584E71103EAD5A26C002AEAD19E
:102640008EE70A68206C22F016020A604A6922F0BE
:1026500080024A6138B30A6822F008020A603F2209
:10266000216D02FA03F300200122BB6084F83400DC
:1026700084F835200029B3D0204603B0BDE8F040EF
:10268000084713F4807380D10A68012022F01002F9
:102690000A6084F8343084F8350076E7636C002BE8
:1026A0007FF475AF75E7A26C002AD4D1D7E700BFDD
:1026B00078060020B5814E1B2DE9F04FDFF860C28F
:1026C000DFF86082D1F800E083B0002503E0013537
:1026D000102D00F0A4800123AB400EEA0304A342B6
:1026E000F5D14E6826F0100ABAF1020F00F09A8078
:1026F0004FEA45090322D0F800B002FA09F2D243AA
:1027000006F0030702EA0B0B07FA09F70AF1FF3A92
:1027100047EA0B07BAF1010F076040F2A980C768CA
:102720008B683A4003FA09F31343C360F300CED534
:1027300000230193D8F8443043F48043C8F8443070
:10274000D8F8443025F0030202F1804203F48043BC
:1027500002F59C32019305F00307019BD2F8089023
:10276000BF000F23BB4029EA030A674B98422ED0D3
:1027700003F58063984200F08E80644B984200F02D
:102780009180634B984200F09480624B984200F035
:102790009780614B984200F0A180604B984200F016
:1027A000A480DFF88491484500F09180DFF87C91A7
:1027B000484500F0A180DFF8789148450CBF4FF004
:1027C00009094FF00A0909FA07F74AEA070AC2F8A5
:1027D00008A0DCF80030E243F70354BF1340234362
:1027E000CCF80030DCF80430B70354BF1340234367
:1027F000CCF80430DCF80830F70254BF1340234310
:10280000CCF80830DCF80C30B60205F1010554BFF5
:1028100013402343102DCCF80C307FF45CAF03B091
:10282000BDE8F08F4FEAD50900EB890905F00707ED
:10283000D9F82020BF004FF00F0B0BFA07FB22EA5C
:102840000B0A0A69BA4042EA0A02C9F820204FEA94
:1028500045090322D0F800A002FA09F2D24306F09B
:10286000030702EA0A0A07FA09F747EA0A070760B4
:10287000876807EA020ACF6807FA09F747EA0A07F2
:102880008760D0F804A0C6F300172AEA0303AF401C
:102890001F43476043E74FF0010909FA07F74AEA87
:1028A000070A94E74FF0020909FA07F74AEA070A0C
:1028B0008DE74FF0030909FA07F74AEA070A86E7A6
:1028C0004FF0040909FA07F74AEA070A7FE74FF0D1
:1028D000070909FA07F74AEA070A78E74FF00509F6
:1028E00009FA07F74AEA070A71E74FF0060909FAF9
:1028F00007F74AEA070A6AE74FF0080909FA07F7F3
:102900004AEA070A63E700BF0000024000080240ED
:10291000000C024000100240001402400018024067
:10292000003C014000380240001C024000200240F0
:10293000002402400369194214BF0120002070479F
:1029400002B9090481617047044A5169014200D10A
:10295000704708B55061FDF763FE08BD003C0140BB
:1029600030B583B0194B1A491A4C002201921A6CE7
:1029700042F080521A641B6C03F0805301930123D0
:10298000019A0B60FFF7A0FC054605E0FFF79CFCF1
:10299000401BB0F57A7F16D86368DA03F6D50E4B84
:1029A0000C4C01221A60FFF78FFC054605E0FFF78B
:1029B0008BFC401BB0F57A7F05D863689B03F6D586
:1029C000002003B030BD032003B030BD003802400A
:1029D00040000E420070004044000E42002800F00B
:1029E00032812DE9F0410368DD0782B004462FD51E
:1029F000AC498A6802F00C02042A00F0EA808A6876
:102A000002F00C02082A00F0E0806368B3F5803F12
:102A100000F0E980B3F5A02F00F05481A14D2A68A1
:102A200022F480322A602A6822F480222A60002B55
:102A300040F0DE80FFF748FC064605E0FFF744FC67
:102A4000801B642800F2F2802B689B03F6D4236875
:102A50009F0775D41A0715D56369002B00F0A58070
:102A6000914B904D01221A60FFF72EFC064605E0BF
:102A7000FFF72AFC801B022800F2D8806B6F9B07AF
:102A8000F6D5236858073BD5864A136C13F080535C
:102A900040F0DB800193136C43F080531364136C9C
:102AA00003F080530193019B0126804D2A68D105D4
:102AB00040F1AC80A368012B00F0C980052B00F029
:102AC0000B81784D2A6F22F001022A672A6F22F0CB
:102AD00004022A67002B40F0BF80FFF7F5FB41F2AC
:102AE0008837804606E0FFF7EFFBA0EB0800B8420E
:102AF00000F29C802B6F9807F5D4002E40F0DC800C
:102B0000A269CAB1674DA96801F00C01082948D033
:102B1000022A674A4FF00001116000F0E780FFF7DA
:102B2000D3FB2C46054604E0FFF7CEFB401B0228F2
:102B30007CD823689B01F7D4002002B0BDE8F08167
:102B4000584A916811F00C0F24D0916801F00C01E3
:102B500008291CD0E368002B00F09280554B514DA2
:102B600001221A60FFF7B0FB064604E0FFF7ACFB5A
:102B7000801B02285AD82B689807F7D52B68226942
:102B800023F0F80343EAC2032B60236862E752682C
:102B90005602DFD4434A126895074BD5E268012AF2
:102BA00048D0012002B0BDE8F0813F4A3D4D13609E
:102BB000FFF78AFB064604E0FFF786FB801B02282E
:102BC00034D86B6F9F07F7D45BE74A6850027FF5F4
:102BD0001CAF344A126891037FF53AAF6268002A4D
:102BE0007FF436AFDDE72F4A136843F48033136078
:102BF000FFF76AFB2B4D064604E0FFF765FB801BE1
:102C0000642813D82B689A03F7D520E72A6842F482
:102C100080722A60FFF758FB07462B68DA053FF5FC
:102C200049AFFFF751FBC01B0228F6D9032002B0C1
:102C3000BDE8F0811B4920690A6822F0F80242EAE7
:102C4000C0020A6006E70120704700262DE7154AFA
:102C5000136F43F001031367FFF736FB114D8046F6
:102C600041F2883705E0FFF72FFBA0EB0800B842E0
:102C7000DCD82B6F9B07F6D5002E3FF441AF1BE04D
:102C80000C4A084D1360FFF71FFB064604E0FFF7F0
:102C90001BFB801B0228C9D82B689907F7D423682F
:102CA000D8E600BF00380240800E47420070004066
:102CB0006000474200004742234A136C23F08053D0
:102CC00013641DE7204B1A6842F480221A601A68C8
:102CD00042F480321A608BE71B4B1A6F42F00402F9
:102CE0001A671A6F42F001021A67B5E7FFF7ECFAAC
:102CF000064604E0FFF7E8FA801B022896D82B6806
:102D00009901F7D4D4E90736D4E90902E16A0E4CF7
:102D1000334343EA8013520843EA0163013A0B4903
:102D200043EA024301226B600A60FFF7CDFA0546D1
:102D300005E0FFF7C9FA401B02283FF677AF23688A
:102D40009A01F6D5F8E600BF00380240600047421D
:102D5000174908B58B6803F00C03042B1BD0082B14
:102D600017D14A684B6813F4800302F03F0214D174
:102D700049681048C1F38811A1FB0001FDF738FA3A
:102D80000B4B5B68C3F3014301335B00B0FBF3F013
:102D900008BD084808BD084808BD4B680648C3F38D
:102DA0008813A3FB00010023FDF722FAE8E700BF28
:102DB000003802400024F40040787D0160B1484AA8
:102DC000136803F00F038B4208D2CBB21370136861
:102DD00003F00F038B4201D00120704703682DE9F7
:102DE000F0419D0714D55C0704D53E4CA26842F41F
:102DF000E052A2601A0704D53A4CA26842F460423D
:102E0000A260384C8568A26822F0F0022A43A260D2
:102E1000DF0704460D4622D54268012A56D0931E8C
:102E2000012B304B1B6858D9990725D52D4EB36817
:102E300023F003031343B360FFF746FA41F28837E8
:102E4000804605E0FFF740FAA0EB0800B84242D800
:102E5000B368626803F00C03B3EB820FF2D1204A2F
:102E6000136803F00F03AB4209D9EBB21370136878
:102E700003F00F03AB4202D00120BDE8F0812368CC
:102E80005A0706D51749E0688A6822F4E0520243DF
:102E90008A601B0711D4FFF75BFF124B12499B6836
:102EA000124AC3F30313CB5C20FA03F30020136030
:102EB000FFF7C0F90020BDE8F0810A4A2169936854
:102EC00023F4604343EAC1039360E4E7054B1B68C6
:102ED0009E03ABD4D0E70320EDE79801A6D4CBE75F
:102EE000003C024000380240783D0008780600208F
:102EF00000283BD090F85120002370B502F0FF016C
:102F00000446836262B31846D4E90135D4E903214B
:102F10002B4313436269E569266A0B431343A26995
:102F200021682B43022584F85150334302F4007585
:102F30000E682B43120C656A02F0040203432A4315
:102F400026F040060E600B604A60CB69002223F435
:102F500000630125CB611046626584F8515070BD55
:102F600080F85010FEF796FEA06ACDE7012070476A
:102F7000704700BF00285CD0F8B590F83D3004469B
:102F800003F0FF02BBB322683A4EA569E0686168AE
:102F9000022384F83D30B24213684CD0B2F1804F26
:102FA00058D0A6F57C46B2422AD006F58066B242D9
:102FB00026D006F58066B24222D006F57846B242A7
:102FC0001ED006F57056B24213D006F58066B242A6
:102FD0000FD006F58066B2420BD0A6F59836B24205
:102FE00007D006F58066B24203D006F58066B2428D
:102FF00038D1266933E080F83C20FFF723F8C2E798
:10300000A6681D4F23F070033343266923F44073F1
:10301000334323F080032B43BA421360D0629162A2
:1030200001D16369136301235361002084F83D30AB
:10303000F8BD01207047A768266923F070033B4361
:1030400023F44073334323F080032B431360D06297
:103050009162E6E7A768266923F070033B4323F4F7
:103060004073334323F080032B431360D06291629B
:10307000D9E700BF00000140000401400368DA689E
:1030800022F00102DA60196A41F21112114208D1EC
:10309000196A40F24442114203D11A6822F0010237
:1030A0001A600020704700BF90F83C30012B5AD0C6
:1030B00002220368F0B480F83D209A680C6822F47C
:1030C0007F4222F077020125402C80F83C509A6024
:1030D00074D04AD9602C2DD056D9702C1AD0B4F5A2
:1030E000005F0ED1D1E90152CC6899682A4342EAC7
:1030F000042221F47F410A439A609A6842F4804294
:103100009A600023012280F83D2080F83C30F0BC1A
:1031100018467047D1E90152CC6899682A4342EABF
:10312000042221F47F410A439A609A6842F07702B0
:103130009A60E6E71C6A4D68CE6824F010041C62B1
:1031400099691A6A21F4704122F0A00242EA05123C
:1031500041EA063199611A629A6822F0700242F0DF
:1031600067029A60CDE702207047102C04D03DD949
:10317000202C01D0302CC4D19A6844F0070422F0EE
:10318000700214439C60BCE7502CBAD11D6A1E6AC1
:103190004C68CF6826F001061E629A6925F00A0184
:1031A00022F0F00242EA071221439A6119629A68FA
:1031B00022F0700242F057029A60A2E71D6A1E6A6E
:1031C0004C68CF6826F001061E629A6925F00A0154
:1031D00022F0F00242EA071221439A6119629A68CA
:1031E00022F0700242F047029A608AE7002CC3D0B6
:1031F00087E700BF704700BF704700BF704700BF40
:10320000704700BF03681A69910710B5044602D5DC
:10321000DA6892075FD41A69500702D5DA68510755
:1032200046D41A69120702D5DA6810072ED41A6933
:10323000D20602D5DA68D00618D41A69D10702D5A9
:10324000DA68D2075DD41A69100602D5DA68110669
:103250005FD41A69520602D5DA68500661D41A6939
:10326000910602D5DA68920643D410BD6FF01002C1
:103270001A61DB69082213F4407F2277204664D06C
:10328000FFF7BAFF002223682277D6E76FF0080223
:103290001A61DB69042299072277204652D1FFF791
:1032A000A9FF2046FFF7AAFF002223682277BEE786
:1032B0006FF004021A619B69022213F4407F2277A7
:1032C00020463CD1FFF796FF2046FFF797FF0022EC
:1032D00023682277A5E76FF002021A619B69012239
:1032E0009B07027725D0FFF787FF0022236822770C
:1032F00091E76FF0200220461A61BDE8104000F00F
:103300004DB86FF001021A61204600F0DDF9236824
:1033100099E76FF080021A61204600F041F82368B7
:1033200097E76FF040021A612046FFF769FF2368B4
:1033300095E7FFF75FFF2046FFF760FFD5E7FFF750
:103340005BFFC4E7FFF758FFAEE7FFF753FF2046E8
:10335000FFF754FF96E700BF90F83C20012A1AD0EF
:1033600070B40222046880F83D20D1E9006503466C
:103370006068A26820F0700122F0800231432A4385
:103380000126002561602846A26083F83D6083F82D
:103390003C5070BC70470220704700BF704700BFB0
:1033A000704700BF00F002B800F01AB810B500284E
:1033B00014BF04460124204600F048F830B900F05C
:1033C00007F808B900F011F88047F4E710BD0000D5
:1033D000024B1868BFF35B8F704700BF28070020BF
:1033E00000F03CB808B500F000F808B5062000F081
:1033F00037F90120FEF7A8FE014B1868704700BF9F
:103400008406002070B50D4E0D4CA41BA4100025A1
:10341000A54209D10B4E0C4C00F040F9A41BA4109E
:103420000025A54205D170BD56F8253098470135D5
:10343000EEE756F8253098470135F2E7983D000849
:10344000983D0008983D0008A03D0008024B014649
:10345000186800F073B800BF84060020024B0146D4
:10346000186800F01DB800BF84060020884210B51F
:1034700001EB020307D8421E99420AD011F8014B12
:1034800002F8014FF8E78342F5D98118D21AD342E6
:1034900000D110BD13F8014D01F8014DF7E7000010
:1034A00038B50546002945D051F8043C0C1F002BC7
:1034B000B8BFE41800F0F0F81F4A1368104633B99B
:1034C000636014602846BDE8384000F0E6B8A342C7
:1034D0000CD921686218934204BF1A685B68636064
:1034E00004BF521822600460ECE713465A680AB120
:1034F000A242FAD919685818A0420BD12068014499
:10350000581882421960DDD1106852685A6001442F
:103510001960D7E702D90C232B60D3E72068211864
:103520008A4204BF11685268626004BF09182160B2
:103530005C60C7E738BD00BF2C07002070B5CD1C0C
:1035400025F0030508350C2D38BF0C25002D064647
:1035500001DBA94203D90C233360002070BD00F0C9
:103560009BF8214A1468214691B9204C23681BB965
:10357000304600F03DF820602946304600F038F82B
:10358000431C24D10C233360304600F086F8E4E776
:103590000B685B1B18D40B2B0FD90B60CD50CC18CC
:1035A000304600F07AF804F10B00231D20F00700EC
:1035B000C31AD3D05A42E250D0E78C424B6816BFB0
:1035C000636013600C46EBE70C464968CCE7C41C0B
:1035D00024F00304A04205D0211A304600F008F878
:1035E0000130CFD02560DBE72C070020300700201A
:1035F00038B5064C0023054608462360FEF7AAFDB1
:10360000431C02D1236803B12B6038BDB00C0020ED
:103610001F2938B504460D4604D9162303604FF020
:10362000FF3038BD426C12B152F821304BB9204600
:1036300000F030F82A4601462046BDE8384000F048
:1036400017B8012B0AD0591C03D11623036001209F
:10365000E7E7002442F82540284698470020E0E7A5
:10366000024B01461868FFF7D3BF00BF8406002055
:1036700038B5074C00230546084611462360FEF77F
:103680005BFD431C02D1236803B12B6038BD00BF32
:10369000B00C0020FEF74EBD70477047F8B500BF74
:1036A000F8BC08BC9E467047F8B500BFF8BC08BC23
:1036B0009E467047000000005FF800F011050020F2
:1036C0005FF800F09D0100205FF800F0AD010020E0
:1036D0005FF800F0010200205FF800F061040020B4
:1036E0005FF800F0550200205FF800F001000020B4
:1036F0005FF800F0850500205FF800F0310300203E
:10370000037CF3B110B40468818883B00023037490
:10371000A1610193019B5A1E0192002BFAD1090469
:103720000523A1610193019B5A1E0192002BFAD13E
:10373000D0E90212037E406903B05DF8044B00F04B
:1037400077B9704738B50446406900F091F9A1682F
:10375000236A0D784A78187A02EB052212B25A8150
:103760005A89002856D012B207EE902A93ED017ABA
:10377000F8EEE77A67EE877A5A7CC3ED037AA2B156
:103780009A7C002A54D193ED057A93ED036AD3ED28
:10379000066AF7EE007A77EEC77A67EE867AE7EE8A
:1037A000267AC3ED037ADA689A61C8780A79E36900
:1037B00002EB002212B2197A5A8193ED017A5A89EA
:1037C00009B312B207EE902AF8EEE77A67EE877A2D
:1037D0005A7CC3ED037A9AB19A7C22BB93ED057AA9
:1037E00093ED036AD3ED066AF7EE007A77EEC77AB7
:1037F00067EE867AE7EE267AC3ED037ADA689A6195
:103800000123237438BD07EE902AF8EEE77A67EEBD
:10381000877ADDE707EE902A93ED017AF8EEE77AF2
:1038200067EE877AA8E700229A740123237438BDD3
:1038300000229A74B9E700BF037A418190ED017AC2
:1038400003B343891BB207EE903AF8EEE77A67EECE
:10385000877A437CC0ED037A9BB1837CD3B990ED2A
:10386000057A90ED036AD0ED066AF7EE007A77EEFE
:10387000C77A67EE867AE7EE267AC0ED037AC368E8
:1038800083617047438907EE903AF8EEE77A67EE76
:10389000877ADEE700238374704700BF90ED030A48
:1038A000704700BF408900B2704700BF704700BF3B
:1038B000014B186800F042B810070020014B18684F
:1038C00000F03CB80C070020014B1868FFF73ABF26
:1038D00004070020704700BF10B5064C206800F0B8
:1038E000F7F9054B20680122BDE810401A7000F07E
:1038F000FBB900BF1C07002020070020704700BF55
:10390000037FD3B18388427F30B404681B04002551
:103910000577A36102B14942C26CC1F3034310337E
:103920001370C36C0A125A70C36C9970C26C806AAF
:103930000323002130BC00F07BB8704710B504466B
:10394000806A00F095F82368A2889A6101232377A2
:1039500010BD00BF90F8443080ED100A9BB1B0F864
:103960004630826C9BB2591C89B202EB8303A0F8EB
:10397000461083ED000AB0F84630B3F57A6F84BF85
:10398000002380F84430037F03B97047D0ED067AF6
:1039900090ED047A8288417F30EE670AFEEE007A6D
:1039A000E0EE077A10B4FDEEE77A04680023120413
:1039B000037717EE903AA26101B15B42C16CC3F389
:1039C000034210320A70C26C19125170C26C9370AB
:1039D000C26C5DF8044B806A0323002100F028B814
:1039E00090ED0F7AD0ED0D7AC26A30EE477A27EE6D
:1039F000277AFCEEC77A17EE903A02EB8302013386
:103A000000EE103AF8EE677A92ED016AD2ED006AA4
:103A100077EE677AB8EE400A67EE867A30EE470AAC
:103A2000E0EE267AFCEEE77A17EE900A704700BFC8
:103A300030B4C468ACB1E2606360226842F0010255
:103A400022608268032502247AB1D1605360116834
:103A500041F001011160826953682B43536030BC0F
:103A6000704782680125002AEFD12546F3E700BFA1
:103A700010B4826993681B06FCD4836853B1016853
:103A800004690C60196821F001011960536823F082
:103A900001035360C36853B1416840690860196805
:103AA00021F001011960536823F0020353605DF8AF
:103AB000044B70478369CBB9036910B5044673B9E9
:103AC000C368026802EB83000133B3F57A7F80EDAF
:103AD000050AE3600ED0B3F5FA6F20D02369A288FF
:103AE0000133934208BF0023236110BD8369013B6A
:103AF00083617047A06840F6B473C16800F0C2F8F3
:103B0000A188164A40F2E73303FB01F3934222D81F
:103B1000C3F5433202F5A072E368A261DBE7A06857
:103B20002268C16802F57A6240F6B47300F0AAF820
:103B3000A2880A4940F2E73303FB02F300208B42DC
:103B4000E06006D8C3F5433101F5A0712369A16196
:103B5000C6E72369C4E7E368BDE700BF3F0D030084
:103B600038B58369DBB9036904468BB9C368026859
:103B7000581D023302EB8000B3F57A7F80ED000A16
:103B8000C0ED010AE3600ED0B3F5FA6F20D02369CF
:103B9000A2880133934208BF0023236138BD8369A3
:103BA000013B836138BDA06840F6B473C16800F082
:103BB00069F8A188154A40F2E73303FB01F3934209
:103BC00022D8C3F5433202F5A072E368A261DBE7B5
:103BD000A0682268C16802F57A6240F6B47300F00A
:103BE00051F8A288094940F2E73303FB02F30020B1
:103BF0008B42E06006D8C3F5433101F5A07123691B
:103C0000A161C6E72369C4E7E368BDE73F0D030090
:103C100090F82C3093B370EE600AD0ED006A90ED0E
:103C2000036A90ED017A90ED044AD0ED097AD0ED67
:103C3000054A90ED065A90ED070A70EEE66AA6EE88
:103C4000207AC6EE865AE4EE207A80ED017AE7EE1D
:103C5000247AE5EE257AB4EEE70AF1EE10FA08D4FC
:103C600090ED080AB4EEE70AF1EE10FAB8BFB0EE34
:103C7000670AC0ED000A80ED090A704770EEC00ABD
:103C8000CBE700BF30B50446807A83B058B1E06816
:103C900000258842A57208D09BB22068FFF7C8FEB5
:103CA000636822899A6103B030BD40F6B4708342E4
:103CB000F2D908460121CDE9003200F04DF8009B11
:103CC000184600F055F8DDE900320146E060E3E710
:103CD00010B504460068FFF7CBFE0123A37210BDA8
:103CE000436802899A617047038942681B049361A3
:103CF000704700BF08B50B4BD3E91620202311688D
:103D00008340194208D0084893600268136823F082
:103D10004003136000F01CF80248BDE8084000F0C2
:103D20001FB800BF2408002034070020014800F01D
:103D300017B800BF8C0B0020014800F015B800BF79
:103D4000EC0A0020014800F00FB800BF3C09002039
:103D50005FF800F0712F00085FF800F0A933000849
:103D60005FF800F00D2500085FF800F0053200084C
:083D70005FF800F0A533000824
:103D78000000000000000000010203040607080913
:083D88000006101600061016DB
:083D900090C4FF7F0100000058
:083D9800D5010008350E0008FA
:043DA000B101000865
:103DA4000024F40001000000100000008806002038
:103DB40000000000000000000000000000000000FF
:103DC40000000000000000000000000000000000EF
:103DD40000000000000000000000000000000000DF
:103DE40000000000000000000000000000000000CF
:103DF40000000000000000000000000000000000BF
:103E040000000000000000000000000000000000AE
:04000005080021E1ED
:00000001FF
